S0~P~M7QP,M7QPB,OEM718D,OEM718DC,OEM719,OEM719A,OEM719B,OEM719C,OEM719D,OEM719AC,OEM719BC,OEM719N,OEM729,OEM729R,OEM729C,OEM729RC,OEM7500,OEM7500C,OEM7600,OEM7600C,OEM7700,OEM7700C,OEM7720,OEM7720C,PIM7500,PIM7500C
S0~V~DEV-LOAD
S0~T~DATA1
S321000000000A007A3A00C00000381D48E100C0000002008C00000000007555D67183
S3210000001C53435249505453000000000000000000312E300000000000000000000B
S3210000003800000000426C6F636B310000000000000000000000000000000000008A
S3210000005400000000000000000000000000000000000000000000000032303230C6
S321000000702F4A756C2F31370030393A31303A30360000000000000000740F000056
S3210000008CFFFFFFFFFFFFFFFFFFFFFFFFFFFFFFFFFFFFFFFFFFFFFFFFFFFFFFFF6E
S321000000A8FFFFFFFFFFFFFFFFFFFFFFFFFFFFFFFFFFFFFFFFFFFFFFFFFFFFFFFF52
S321000000C4FFFFFFFFFFFFFFFFFFFFFFFFFFFFFFFFFFFFFFFFFFFFFFFFFFFFFFFF36
S321000000E0FFFFFFFFFFFFFFFFFFFFFFFFFFFFFFFFFFFFFFFFFFFFFFFFFFFFFFFF1A
S32100008FF80000000000000000014344303031010057696E333220202020202020CA
S3210000901420202020202020202020202020202020202020204344524F4D202020E5
S32100009030202020202020202020202020202020202020202020202020000000001E
S3210000904C00000000180000000000001800000000000000000000000000000000D2
S3210000906800000000000000000000000000000000010000010100000100080800D2
S321000090840A0000000000000A130000000000000000000015000000002200170055
S321000090A00000000000170008000000000800780711090935E802000001000001C4
S321000090BC0100202020202020202020202020202020202020202020202020202051
S321000090D820202020202020202020202020202020202020202020202020202020F6
S321000090F420202020202020202020202020202020202020202020202020202020DA
S3210000911020202020202020202020202020202020202020202020202020202020BD
S3210000912C20202020202020202020202020202020202020202020202020202020A1
S321000091482020202020202020202020202020202020202020202020202020202085
S321000091642020202020202020202020202020202020202020202020202020202069
S32100009180202020202020202020202020202020202020202020202020202020204D
S3210000919C2020202020202020202020202020202020202020202020202020202031
S321000091B82020202020202020202020202020202020202020202020202020202015
S321000091D420202020202020202020202020202020202020202020202020202020F9
S321000091F020202020202020202020202020202020202020202020202020202020DD
S3210000920C20202020202020202020202020202020202020202020202020202020C0
S32100009228202020202020202020202020202020202020202020204D4B49534F469B
S32100009244532049534F20393636302F4846532046494C4553595354454D204255C9
S32100009260494C44455220262043445245434F52442043442D522F445644204352E8
S3210000927C4541544F5220284329203139393320452E594F554E4744414C45202828
S3210000929843292031393937204A2E50454152534F4E2F4A2E534348494C4C494EA1
S321000092B447202020202020202020202020202020202020202020202020202020F1
S321000092D020202020202020202020202020202020202020202020202020202020FC
S321000092EC20202020202020202020202020202020202020202020202020202020E0
S3210000930820202020202020202020202020202020202020202020202020202020C3
S3210000932420202020202020202032303230303731373039313030363030E832309A
S321000093403230303731373039313030363030E830303030303030303030303030F2
S3210000935C3030300032303230303731373039313030363030E801002020202020B3
S321000093782020202020202020202020202020202020202020202020202020202053
S321000093942020202020202020202020202020202020202020202020202020202037
S321000093B0202020202020202020202020202020202020202020202020202020201B
S321000093CC20202020202020202020202020202020202020202020202020202020FF
S321000093E820202020202020202020202020202020202020202020202020202020E3
S3210000940420202020202020202020202020202020202020202020202020202020C6
S3210000942020202020202020202020202020202020202020202020202020202020AA
S3210000943C202020202020202020202020202020202020202020202020202020208E
S321000094582020202020202020202020202020202020202020202020202020202072
S321000094742020202020202020202020202020202020202020202020202020202056
S32100009490202020202020202020202020202020202020202020202020202020203A
S321000094AC202020202020202020202020202020202020202020202020202020201E
S321000094C82020202020202020202020202020202020202020202020202020202002
S321000094E420202020202020202020202020202020202020202020202020202020E6
S3210000950020202020202020202020202020202020202020202020202020202020C9
S3210000951C20202020202020202020202020202020202020202020202020202020AD
S321000095382020202020202020202020202020202020202020202020202020202091
S321000095542020202020202020202020202020202020202020202020202020202075
S321000095702020200000000000000000000000000000000000000000000000000079
S3210000958C00000000000000000000000000000000000000000000000000000000BD
S321000095A800000000000000000000000000000000000000000000000000000000A1
S321000095C40000000000000000000000000000000000000000000000000000000085
S321000095E00000000000000000000000000000000000000000000000000000000069
S321000095FC000000000000000000000000000000000000000000000000000000004D
S321000096180000000000000000000000000000000000000000000000000000000030
S321000096340000000000000000000000000000000000000000000000000000000014
S3210000965000000000000000000000000000000000000000000000000000000000F8
S3210000966C00000000000000000000000000000000000000000000000000000000DC
S3210000968800000000000000000000000000000000000000000000000000000000C0
S321000096A400000000000000000000000000000000000000000000000000000000A4
S321000096C00000000000000000000000000000000000000000000000000000000088
S321000096DC000000000000000000000000000000000000000000000000000000006C
S321000096F80000000000000000000000000000000000000000000000000000000050
S321000097140000000000000000000000000000000000000000000000000000000033
S321000097300000000000000000000000000000000000000000000000000000000017
S3210000974C00000000000000000000000000000000000000000000000000000000FB
S3210000976800000000000000000000000000000000000000000000000000000000DF
S3210000978400000000000000000000000000000000000000000000000000000000C3
S321000097A000000000000000000000000000000000000000000000000000000000A7
S321000097BC000000000000000000000000000000000000000000000000000000008B
S321000097D8000000000000000000000000000000000000000000000000000000006F
S321000097F4000000000000000000000000FF4344303031010000000000000000003B
S321000098100000000000000000000000000000000000000000000000000000000036
S3210000982C000000000000000000000000000000000000000000000000000000001A
S3210000984800000000000000000000000000000000000000000000000000000000FE
S3210000986400000000000000000000000000000000000000000000000000000000E2
S32100009FF0000000000000000000000000000000004D4B4920467269204A756C20C2
S3210000A00C31372030393A31303A303620323032300A6D6B69736F667320322E306C
S3210000A028312D626F6F7463642E7275202D55202D6E6F2D706164202D6F205C556D
S3210000A044736572735C4A616D65735C54656D7076696C6C655C303030315C6F6596
S3210000A0606D375F6170695F62657374706F735F7374617475735C6865785C6F656E
S3210000A07C6D375F6170695F736372697074732E69736F20433A5C55736572735C3E
S3210000A0984A616D65735C54656D7076696C6C655C303030315C6F656D375F617087
S3210000A0B4695F62657374706F735F7374617475735C656D70747900000000000034
S3210000A0D0000000000000000000000000000000000000000000000000000000006E
S3210000A0EC0000000000000000000000000000000000000000000000000000000052
S3210000A1080000000000000000000000000000000000000000000000000000000035
S3210000A1240000000000000000000000000000000000000000000000000000000019
S3210000A7EC0000000000000000000000000000000000000000010017000000010032
S3210000A808000000000000000000000000000000000000000000000000000000002E
S3210000A8240000000000000000000000000000000000000000000000000000000012
S3210000A84000000000000000000000000000000000000000000000000000000000F6
S3210000A85C00000000000000000000000000000000000000000000000000000000DA
S3210000B800010000000017000100000000000000000000000000000000000000000D
S3210000B81C000000000000000000000000000000000000000000000000000000000A
S3210000B83800000000000000000000000000000000000000000000000000000000EE
S3210000B85400000000000000000000000000000000000000000000000000000000D2
S3210000B87000000000000000000000000000000000000000000000000000000000B6
S3210000C7F80000000000000000220017000000000000170008000000000800780740
S3210000C81411090935E8020000010000010100220017000000000000170008000065
S3210000C83000000800780711090935E8020000010000010101000000000000000019
S3210000C84C00000000000000000000000000000000000000000000000000000000CA
S3210000C86800000000000000000000000000000000000000000000000000000000AE
S3210000C8840000000000000000000000000000000000000000000000000000000092
S3210000C8A00000000000000000000000000000000000000000000000000000000076
